{
  "contractName": "UserDocument",
  "abi": [
    {
      "inputs": [],
      "stateMutability": "nonpayable",
      "type": "constructor"
    },
    {
      "anonymous": false,
      "inputs": [
        {
          "indexed": true,
          "internalType": "address",
          "name": "owner",
          "type": "address"
        },
        {
          "indexed": true,
          "internalType": "address",
          "name": "approved",
          "type": "address"
        },
        {
          "indexed": true,
          "internalType": "uint256",
          "name": "tokenId",
          "type": "uint256"
        }
      ],
      "name": "Approval",
      "type": "event"
    },
    {
      "anonymous": false,
      "inputs": [
        {
          "indexed": true,
          "internalType": "address",
          "name": "owner",
          "type": "address"
        },
        {
          "indexed": true,
          "internalType": "address",
          "name": "operator",
          "type": "address"
        },
        {
          "indexed": false,
          "internalType": "bool",
          "name": "approved",
          "type": "bool"
        }
      ],
      "name": "ApprovalForAll",
      "type": "event"
    },
    {
      "anonymous": false,
      "inputs": [
        {
          "indexed": false,
          "internalType": "address",
          "name": "_userAddress",
          "type": "address"
        },
        {
          "indexed": false,
          "internalType": "uint256",
          "name": "tokenId",
          "type": "uint256"
        }
      ],
      "name": "DocumentCreated",
      "type": "event"
    },
    {
      "anonymous": false,
      "inputs": [
        {
          "indexed": true,
          "internalType": "address",
          "name": "previousOwner",
          "type": "address"
        },
        {
          "indexed": true,
          "internalType": "address",
          "name": "newOwner",
          "type": "address"
        }
      ],
      "name": "OwnershipTransferred",
      "type": "event"
    },
    {
      "anonymous": false,
      "inputs": [
        {
          "indexed": true,
          "internalType": "address",
          "name": "from",
          "type": "address"
        },
        {
          "indexed": true,
          "internalType": "address",
          "name": "to",
          "type": "address"
        },
        {
          "indexed": true,
          "internalType": "uint256",
          "name": "tokenId",
          "type": "uint256"
        }
      ],
      "name": "Transfer",
      "type": "event"
    },
    {
      "anonymous": false,
      "inputs": [
        {
          "indexed": false,
          "internalType": "address",
          "name": "_userAddress",
          "type": "address"
        }
      ],
      "name": "UserCreated",
      "type": "event"
    },
    {
      "inputs": [
        {
          "internalType": "uint256",
          "name": "",
          "type": "uint256"
        }
      ],
      "name": "_users",
      "outputs": [
        {
          "internalType": "address",
          "name": "userAddress",
          "type": "address"
        },
        {
          "internalType": "string",
          "name": "country",
          "type": "string"
        },
        {
          "internalType": "bool",
          "name": "passport",
          "type": "bool"
        },
        {
          "internalType": "bool",
          "name": "personalId",
          "type": "bool"
        },
        {
          "internalType": "bool",
          "name": "taxCode",
          "type": "bool"
        }
      ],
      "stateMutability": "view",
      "type": "function"
    },
    {
      "inputs": [
        {
          "internalType": "address",
          "name": "to",
          "type": "address"
        },
        {
          "internalType": "uint256",
          "name": "tokenId",
          "type": "uint256"
        }
      ],
      "name": "approve",
      "outputs": [],
      "stateMutability": "nonpayable",
      "type": "function"
    },
    {
      "inputs": [
        {
          "internalType": "address",
          "name": "owner",
          "type": "address"
        }
      ],
      "name": "balanceOf",
      "outputs": [
        {
          "internalType": "uint256",
          "name": "",
          "type": "uint256"
        }
      ],
      "stateMutability": "view",
      "type": "function"
    },
    {
      "inputs": [
        {
          "internalType": "uint256",
          "name": "tokenId",
          "type": "uint256"
        }
      ],
      "name": "getApproved",
      "outputs": [
        {
          "internalType": "address",
          "name": "",
          "type": "address"
        }
      ],
      "stateMutability": "view",
      "type": "function"
    },
    {
      "inputs": [
        {
          "internalType": "address",
          "name": "owner",
          "type": "address"
        },
        {
          "internalType": "address",
          "name": "operator",
          "type": "address"
        }
      ],
      "name": "isApprovedForAll",
      "outputs": [
        {
          "internalType": "bool",
          "name": "",
          "type": "bool"
        }
      ],
      "stateMutability": "view",
      "type": "function"
    },
    {
      "inputs": [],
      "name": "name",
      "outputs": [
        {
          "internalType": "string",
          "name": "",
          "type": "string"
        }
      ],
      "stateMutability": "view",
      "type": "function"
    },
    {
      "inputs": [],
      "name": "owner",
      "outputs": [
        {
          "internalType": "address",
          "name": "",
          "type": "address"
        }
      ],
      "stateMutability": "view",
      "type": "function"
    },
    {
      "inputs": [
        {
          "internalType": "uint256",
          "name": "tokenId",
          "type": "uint256"
        }
      ],
      "name": "ownerOf",
      "outputs": [
        {
          "internalType": "address",
          "name": "",
          "type": "address"
        }
      ],
      "stateMutability": "view",
      "type": "function"
    },
    {
      "inputs": [],
      "name": "renounceOwnership",
      "outputs": [],
      "stateMutability": "nonpayable",
      "type": "function"
    },
    {
      "inputs": [
        {
          "internalType": "address",
          "name": "from",
          "type": "address"
        },
        {
          "internalType": "address",
          "name": "to",
          "type": "address"
        },
        {
          "internalType": "uint256",
          "name": "tokenId",
          "type": "uint256"
        }
      ],
      "name": "safeTransferFrom",
      "outputs": [],
      "stateMutability": "nonpayable",
      "type": "function"
    },
    {
      "inputs": [
        {
          "internalType": "address",
          "name": "from",
          "type": "address"
        },
        {
          "internalType": "address",
          "name": "to",
          "type": "address"
        },
        {
          "internalType": "uint256",
          "name": "tokenId",
          "type": "uint256"
        },
        {
          "internalType": "bytes",
          "name": "_data",
          "type": "bytes"
        }
      ],
      "name": "safeTransferFrom",
      "outputs": [],
      "stateMutability": "nonpayable",
      "type": "function"
    },
    {
      "inputs": [
        {
          "internalType": "address",
          "name": "operator",
          "type": "address"
        },
        {
          "internalType": "bool",
          "name": "approved",
          "type": "bool"
        }
      ],
      "name": "setApprovalForAll",
      "outputs": [],
      "stateMutability": "nonpayable",
      "type": "function"
    },
    {
      "inputs": [
        {
          "internalType": "bytes4",
          "name": "interfaceId",
          "type": "bytes4"
        }
      ],
      "name": "supportsInterface",
      "outputs": [
        {
          "internalType": "bool",
          "name": "",
          "type": "bool"
        }
      ],
      "stateMutability": "view",
      "type": "function"
    },
    {
      "inputs": [],
      "name": "symbol",
      "outputs": [
        {
          "internalType": "string",
          "name": "",
          "type": "string"
        }
      ],
      "stateMutability": "view",
      "type": "function"
    },
    {
      "inputs": [
        {
          "internalType": "address",
          "name": "from",
          "type": "address"
        },
        {
          "internalType": "address",
          "name": "to",
          "type": "address"
        },
        {
          "internalType": "uint256",
          "name": "tokenId",
          "type": "uint256"
        }
      ],
      "name": "transferFrom",
      "outputs": [],
      "stateMutability": "nonpayable",
      "type": "function"
    },
    {
      "inputs": [
        {
          "internalType": "address",
          "name": "newOwner",
          "type": "address"
        }
      ],
      "name": "transferOwnership",
      "outputs": [],
      "stateMutability": "nonpayable",
      "type": "function"
    },
    {
      "inputs": [
        {
          "internalType": "address",
          "name": "_to",
          "type": "address"
        },
        {
          "internalType": "string",
          "name": "_country",
          "type": "string"
        }
      ],
      "name": "createUser",
      "outputs": [],
      "stateMutability": "nonpayable",
      "type": "function"
    },
    {
      "inputs": [
        {
          "internalType": "uint256",
          "name": "_userId",
          "type": "uint256"
        },
        {
          "internalType": "uint256",
          "name": "_typeOfRequest",
          "type": "uint256"
        },
        {
          "internalType": "string",
          "name": "_uri",
          "type": "string"
        }
      ],
      "name": "onDocumentCreation",
      "outputs": [],
      "stateMutability": "nonpayable",
      "type": "function"
    },
    {
      "inputs": [
        {
          "internalType": "uint256",
          "name": "tokenId",
          "type": "uint256"
        }
      ],
      "name": "tokenURI",
      "outputs": [
        {
          "internalType": "string",
          "name": "",
          "type": "string"
        }
      ],
      "stateMutability": "view",
      "type": "function"
    },
    {
      "inputs": [
        {
          "internalType": "uint256",
          "name": "_tokenId",
          "type": "uint256"
        },
        {
          "internalType": "string",
          "name": "_data",
          "type": "string"
        }
      ],
      "name": "addDataToDynamicNFT",
      "outputs": [],
      "stateMutability": "nonpayable",
      "type": "function"
    },
    {
      "inputs": [
        {
          "internalType": "uint256",
          "name": "_tokenId",
          "type": "uint256"
        }
      ],
      "name": "getDynamiData",
      "outputs": [
        {
          "internalType": "string[]",
          "name": "",
          "type": "string[]"
        }
      ],
      "stateMutability": "view",
      "type": "function"
    },
    {
      "inputs": [],
      "name": "getTokenIdsCount",
      "outputs": [
        {
          "internalType": "uint256",
          "name": "",
          "type": "uint256"
        }
      ],
      "stateMutability": "view",
      "type": "function"
    },
    {
      "inputs": [],
      "name": "getUserIdsCount",
      "outputs": [
        {
          "internalType": "uint256",
          "name": "",
          "type": "uint256"
        }
      ],
      "stateMutability": "view",
      "type": "function"
    }
  ],
  "bytecode": "0x60806040523480156200001157600080fd5b506040518060400160405280600881526020017f446f63756d656e740000000000000000000000000000000000000000000000008152506040518060400160405280600481526020017f444f435300000000000000000000000000000000000000000000000000000000815250816000908051906020019062000096929190620001a6565b508060019080519060200190620000af929190620001a6565b505050620000d2620000c6620000d860201b60201c565b620000e060201b60201c565b620002bb565b600033905090565b6000600760009054906101000a900473ffffffffffffffffffffffffffffffffffffffff16905081600760006101000a81548173ffffffffffffffffffffffffffffffffffffffff021916908373ffffffffffffffffffffffffffffffffffffffff1602179055508173ffffffffffffffffffffffffffffffffffffffff168173ffffffffffffffffffffffffffffffffffffffff167f8be0079c531659141344cd1fd0a4f28419497f9722a3daafe3b4186f6b6457e060405160405180910390a35050565b828054620001b49062000256565b90600052602060002090601f016020900481019282620001d8576000855562000224565b82601f10620001f357805160ff191683800117855562000224565b8280016001018555821562000224579182015b828111156200022357825182559160200191906001019062000206565b5b50905062000233919062000237565b5090565b5b808211156200025257600081600090555060010162000238565b5090565b600060028204905060018216806200026f57607f821691505b602082108114156200028657620002856200028c565b5b50919050565b7f4e487b7100000000000000000000000000000000000000000000000000000000600052602260045260246000fd5b613ed880620002cb6000396000f3fe608060405234801561001057600080fd5b506004361061014d5760003560e01c80637edf771d116100c3578063b88d4fde1161007c578063b88d4fde1461038a578063c87b56dd146103a6578063cc4a43c0146103d6578063e985e9c51461040a578063f2fde38b1461043a578063f9bcd545146104565761014d565b80637edf771d146102dc5780638c91dc64146102f85780638da5cb5b1461031657806395d89b4114610334578063a22cb46514610352578063af5f6aaf1461036e5761014d565b80632f244f53116101155780632f244f531461020857806332f9b06a1461023857806342842e0e146102565780636352211e1461027257806370a08231146102a2578063715018a6146102d25761014d565b806301ffc9a71461015257806306fdde0314610182578063081812fc146101a0578063095ea7b3146101d057806323b872dd146101ec575b600080fd5b61016c60048036038101906101679190612947565b610472565b6040516101799190613087565b60405180910390f35b61018a610554565b60405161019791906130a2565b60405180910390f35b6101ba60048036038101906101b59190612999565b6105e6565b6040516101c79190612f7b565b60405180910390f35b6101ea60048036038101906101e5919061290b565b61066b565b005b610206600480360381019061020191906127b1565b610783565b005b610222600480360381019061021d9190612999565b6107e3565b60405161022f9190613065565b60405180910390f35b610240610917565b60405161024d91906133c4565b60405180910390f35b610270600480360381019061026b91906127b1565b610928565b005b61028c60048036038101906102879190612999565b610948565b6040516102999190612f7b565b60405180910390f35b6102bc60048036038101906102b7919061274c565b6109fa565b6040516102c991906133c4565b60405180910390f35b6102da610ab2565b005b6102f660048036038101906102f19190612a16565b610b3a565b005b610300610f2c565b60405161030d91906133c4565b60405180910390f35b61031e610f3d565b60405161032b9190612f7b565b60405180910390f35b61033c610f67565b60405161034991906130a2565b60405180910390f35b61036c6004803603810190610367919061287b565b610ff9565b005b610388600480360381019061038391906129c2565b61117a565b005b6103a4600480360381019061039f9190612800565b61128b565b005b6103c060048036038101906103bb9190612999565b6112ed565b6040516103cd91906130a2565b60405180910390f35b6103f060048036038101906103eb9190612999565b6112ff565b604051610401959493929190612fe2565b60405180910390f35b610424600480360381019061041f9190612775565b611404565b6040516104319190613087565b60405180910390f35b610454600480360381019061044f919061274c565b611498565b005b610470600480360381019061046b91906128b7565b611590565b005b60007f80ac58cd000000000000000000000000000000000000000000000000000000007bffffffffffffffffffffffffffffffffffffffffffffffffffffffff1916827bffffffffffffffffffffffffffffffffffffffffffffffffffffffff1916148061053d57507f5b5e139f000000000000000000000000000000000000000000000000000000007bffffffffffffffffffffffffffffffffffffffffffffffffffffffff1916827bffffffffffffffffffffffffffffffffffffffffffffffffffffffff1916145b8061054d575061054c826116fe565b5b9050919050565b60606000805461056390613664565b80601f016020809104026020016040519081016040528092919081815260200182805461058f90613664565b80156105dc5780601f106105b1576101008083540402835291602001916105dc565b820191906000526020600020905b8154815290600101906020018083116105bf57829003601f168201915b5050505050905090565b60006105f182611768565b610630576040517f08c379a000000000000000000000000000000000000000000000000000000000815260040161062790613264565b60405180910390fd5b6004600083815260200190815260200160002060009054906101000a900473ffffffffffffffffffffffffffffffffffffffff169050919050565b600061067682610948565b90508073ffffffffffffffffffffffffffffffffffffffff168373ffffffffffffffffffffffffffffffffffffffff1614156106e7576040517f08c379a00000000000000000000000000000000000000000000000000000000081526004016106de90613324565b60405180910390fd5b8073ffffffffffffffffffffffffffffffffffffffff166107066117d4565b73ffffffffffffffffffffffffffffffffffffffff16148061073557506107348161072f6117d4565b611404565b5b610774576040517f08c379a000000000000000000000000000000000000000000000000000000000815260040161076b90613184565b60405180910390fd5b61077e83836117dc565b505050565b61079461078e6117d4565b82611895565b6107d3576040517f08c379a00000000000000000000000000000000000000000000000000000000081526004016107ca90613344565b60405180910390fd5b6107de838383611973565b505050565b60606107ee82611768565b61082d576040517f08c379a0000000000000000000000000000000000000000000000000000000008152600401610824906131e4565b60405180910390fd5b600c6000838152602001908152602001600020805480602002602001604051908101604052809291908181526020016000905b8282101561090c57838290600052602060002001805461087f90613664565b80601f01602080910402602001604051908101604052809291908181526020018280546108ab90613664565b80156108f85780601f106108cd576101008083540402835291602001916108f8565b820191906000526020600020905b8154815290600101906020018083116108db57829003601f168201915b505050505081526020019060010190610860565b505050509050919050565b60006109236008611bcf565b905090565b6109438383836040518060200160405280600081525061128b565b505050565b6000806002600084815260200190815260200160002060009054906101000a900473ffffffffffffffffffffffffffffffffffffffff169050600073ffffffffffffffffffffffffffffffffffffffff168173ffffffffffffffffffffffffffffffffffffffff1614156109f1576040517f08c379a00000000000000000000000000000000000000000000000000000000081526004016109e8906131c4565b60405180910390fd5b80915050919050565b60008073ffffffffffffffffffffffffffffffffffffffff168273ffffffffffffffffffffffffffffffffffffffff161415610a6b576040517f08c379a0000000000000000000000000000000000000000000000000000000008152600401610a62906131a4565b60405180910390fd5b600360008373ffffffffffffffffffffffffffffffffffffffff1673ffffffffffffffffffffffffffffffffffffffff168152602001908152602001600020549050919050565b610aba6117d4565b73ffffffffffffffffffffffffffffffffffffffff16610ad8610f3d565b73ffffffffffffffffffffffffffffffffffffffff1614610b2e576040517f08c379a0000000000000000000000000000000000000000000000000000000008152600401610b25906132c4565b60405180910390fd5b610b386000611bdd565b565b82610b456009611bcf565b8110610b86576040517f08c379a0000000000000000000000000000000000000000000000000000000008152600401610b7d90613364565b60405180910390fd5b3373ffffffffffffffffffffffffffffffffffffffff16600a600083815260200190815260200160002060000160009054906101000a900473ffffffffffffffffffffffffffffffffffffffff1673ffffffffffffffffffffffffffffffffffffffff1614610c2a576040517f08c379a0000000000000000000000000000000000000000000000000000000008152600401610c21906132a4565b60405180910390fd5b6000831415610c9857600a600085815260200190815260200160002060020160009054906101000a900460ff1615610c97576040517f08c379a0000000000000000000000000000000000000000000000000000000008152600401610c8e90613204565b60405180910390fd5b5b6001831415610d0657600a600085815260200190815260200160002060020160019054906101000a900460ff1615610d05576040517f08c379a0000000000000000000000000000000000000000000000000000000008152600401610cfc906133a4565b60405180910390fd5b5b6002831415610d7457600a600085815260200190815260200160002060020160029054906101000a900460ff1615610d73576040517f08c379a0000000000000000000000000000000000000000000000000000000008152600401610d6a90613284565b60405180910390fd5b5b6000831415610dad576001600a600086815260200190815260200160002060020160006101000a81548160ff0219169083151502179055505b6001831415610de6576001600a600086815260200190815260200160002060020160016101000a81548160ff0219169083151502179055505b6002831415610e1f576001600a600086815260200190815260200160002060020160026101000a81548160ff0219169083151502179055505b600b6000858152602001908152602001600020610e3c6008611bcf565b9080600181540180825580915050600190039060005260206000200160009091909190915055610ea2600a600086815260200190815260200160002060000160009054906101000a900473ffffffffffffffffffffffffffffffffffffffff1683611ca3565b7f2a1bf2cc128299980aa98c23e0bac92a3aaf3b7a19062a47b90e57863917fb0f600a600086815260200190815260200160002060000160009054906101000a900473ffffffffffffffffffffffffffffffffffffffff166001610f066008611bcf565b610f10919061357a565b604051610f1e92919061303c565b60405180910390a150505050565b6000610f386009611bcf565b905090565b6000600760009054906101000a900473ffffffffffffffffffffffffffffffffffffffff16905090565b606060018054610f7690613664565b80601f0160208091040260200160405190810160405280929190818152602001828054610fa290613664565b8015610fef5780601f10610fc457610100808354040283529160200191610fef565b820191906000526020600020905b815481529060010190602001808311610fd257829003601f168201915b5050505050905090565b6110016117d4565b73ffffffffffffffffffffffffffffffffffffffff168273ffffffffffffffffffffffffffffffffffffffff16141561106f576040517f08c379a000000000000000000000000000000000000000000000000000000000815260040161106690613144565b60405180910390fd5b806005600061107c6117d4565b73ffffffffffffffffffffffffffffffffffffffff1673ffffffffffffffffffffffffffffffffffffffff16815260200190815260200160002060008473ffffffffffffffffffffffffffffffffffffffff1673ffffffffffffffffffffffffffffffffffffffff16815260200190815260200160002060006101000a81548160ff0219169083151502179055508173ffffffffffffffffffffffffffffffffffffffff166111296117d4565b73ffffffffffffffffffffffffffffffffffffffff167f17307eab39ab6107e8899845ad3d59bd9653f200f220920489ca2b5937696c318360405161116e9190613087565b60405180910390a35050565b813373ffffffffffffffffffffffffffffffffffffffff1661119b82610948565b73ffffffffffffffffffffffffffffffffffffffff16146111f1576040517f08c379a00000000000000000000000000000000000000000000000000000000081526004016111e890613384565b60405180910390fd5b6111fa83611768565b611239576040517f08c379a0000000000000000000000000000000000000000000000000000000008152600401611230906131e4565b60405180910390fd5b600c600084815260200190815260200160002082908060018154018082558091505060019003906000526020600020016000909190919091509080519060200190611285929190612570565b50505050565b61129c6112966117d4565b83611895565b6112db576040517f08c379a00000000000000000000000000000000000000000000000000000000081526004016112d290613344565b60405180910390fd5b6112e784848484611cd7565b50505050565b60606112f882611d33565b9050919050565b600a6020528060005260406000206000915090508060000160009054906101000a900473ffffffffffffffffffffffffffffffffffffffff169080600101805461134890613664565b80601f016020809104026020016040519081016040528092919081815260200182805461137490613664565b80156113c15780601f10611396576101008083540402835291602001916113c1565b820191906000526020600020905b8154815290600101906020018083116113a457829003601f168201915b5050505050908060020160009054906101000a900460ff16908060020160019054906101000a900460ff16908060020160029054906101000a900460ff16905085565b6000600560008473ffffffffffffffffffffffffffffffffffffffff1673ffffffffffffffffffffffffffffffffffffffff16815260200190815260200160002060008373ffffffffffffffffffffffffffffffffffffffff1673ffffffffffffffffffffffffffffffffffffffff16815260200190815260200160002060009054906101000a900460ff16905092915050565b6114a06117d4565b73ffffffffffffffffffffffffffffffffffffffff166114be610f3d565b73ffffffffffffffffffffffffffffffffffffffff1614611514576040517f08c379a000000000000000000000000000000000000000000000000000000000815260040161150b906132c4565b60405180910390fd5b600073ffffffffffffffffffffffffffffffffffffffff168173ffffffffffffffffffffffffffffffffffffffff161415611584576040517f08c379a000000000000000000000000000000000000000000000000000000000815260040161157b906130e4565b60405180910390fd5b61158d81611bdd565b50565b6040518060a001604052808373ffffffffffffffffffffffffffffffffffffffff16815260200182815260200160001515815260200160001515815260200160001515815250600a60006115e46009611bcf565b815260200190815260200160002060008201518160000160006101000a81548173ffffffffffffffffffffffffffffffffffffffff021916908373ffffffffffffffffffffffffffffffffffffffff1602179055506020820151816001019080519060200190611655929190612570565b5060408201518160020160006101000a81548160ff02191690831515021790555060608201518160020160016101000a81548160ff02191690831515021790555060808201518160020160026101000a81548160ff0219169083151502179055509050506116c36009611e85565b7f0b0376a109cbb578b709f85f6a7befcdac3ac1ab251c99ede87f30c9572ac4d3826040516116f29190612f7b565b60405180910390a15050565b60007f01ffc9a7000000000000000000000000000000000000000000000000000000007bffffffffffffffffffffffffffffffffffffffffffffffffffffffff1916827bffffffffffffffffffffffffffffffffffffffffffffffffffffffff1916149050919050565b60008073ffffffffffffffffffffffffffffffffffffffff166002600084815260200190815260200160002060009054906101000a900473ffffffffffffffffffffffffffffffffffffffff1673ffffffffffffffffffffffffffffffffffffffff1614159050919050565b600033905090565b816004600083815260200190815260200160002060006101000a81548173ffffffffffffffffffffffffffffffffffffffff021916908373ffffffffffffffffffffffffffffffffffffffff160217905550808273ffffffffffffffffffffffffffffffffffffffff1661184f83610948565b73ffffffffffffffffffffffffffffffffffffffff167f8c5be1e5ebec7d5bd14f71427d1e84f3dd0314c0f7b2291e5b200ac8c7c3b92560405160405180910390a45050565b60006118a082611768565b6118df576040517f08c379a00000000000000000000000000000000000000000000000000000000081526004016118d690613164565b60405180910390fd5b60006118ea83610948565b90508073ffffffffffffffffffffffffffffffffffffffff168473ffffffffffffffffffffffffffffffffffffffff16148061195957508373ffffffffffffffffffffffffffffffffffffffff16611941846105e6565b73ffffffffffffffffffffffffffffffffffffffff16145b8061196a57506119698185611404565b5b91505092915050565b8273ffffffffffffffffffffffffffffffffffffffff1661199382610948565b73ffffffffffffffffffffffffffffffffffffffff16146119e9576040517f08c379a00000000000000000000000000000000000000000000000000000000081526004016119e0906132e4565b60405180910390fd5b600073ffffffffffffffffffffffffffffffffffffffff168273ffffffffffffffffffffffffffffffffffffffff161415611a59576040517f08c379a0000000000000000000000000000000000000000000000000000000008152600401611a5090613124565b60405180910390fd5b611a64838383611e9b565b611a6f6000826117dc565b6001600360008573ffffffffffffffffffffffffffffffffffffffff1673ffffffffffffffffffffffffffffffffffffffff1681526020019081526020016000206000828254611abf919061357a565b925050819055506001600360008473ffffffffffffffffffffffffffffffffffffffff1673ffffffffffffffffffffffffffffffffffffffff1681526020019081526020016000206000828254611b1691906134f3565b92505081905550816002600083815260200190815260200160002060006101000a81548173ffffffffffffffffffffffffffffffffffffffff021916908373ffffffffffffffffffffffffffffffffffffffff160217905550808273ffffffffffffffffffffffffffffffffffffffff168473ffffffffffffffffffffffffffffffffffffffff167fddf252ad1be2c89b69c2b068fc378daa952ba7f163c4a11628f55a4df523b3ef60405160405180910390a4505050565b600081600001549050919050565b6000600760009054906101000a900473ffffffffffffffffffffffffffffffffffffffff16905081600760006101000a81548173ffffffffffffffffffffffffffffffffffffffff021916908373ffffffffffffffffffffffffffffffffffffffff1602179055508173ffffffffffffffffffffffffffffffffffffffff168173ffffffffffffffffffffffffffffffffffffffff167f8be0079c531659141344cd1fd0a4f28419497f9722a3daafe3b4186f6b6457e060405160405180910390a35050565b611cb682611cb16008611bcf565b611ea0565b611cc9611cc36008611bcf565b82611ebe565b611cd36008611e85565b5050565b611ce2848484611973565b611cee84848484611f32565b611d2d576040517f08c379a0000000000000000000000000000000000000000000000000000000008152600401611d24906130c4565b60405180910390fd5b50505050565b6060611d3e82611768565b611d7d576040517f08c379a0000000000000000000000000000000000000000000000000000000008152600401611d7490613244565b60405180910390fd5b6000600660008481526020019081526020016000208054611d9d90613664565b80601f0160208091040260200160405190810160405280929190818152602001828054611dc990613664565b8015611e165780601f10611deb57610100808354040283529160200191611e16565b820191906000526020600020905b815481529060010190602001808311611df957829003601f168201915b505050505090506000611e276120c9565b9050600081511415611e3d578192505050611e80565b600082511115611e72578082604051602001611e5a929190612f57565b60405160208183030381529060405292505050611e80565b611e7b846120e0565b925050505b919050565b6001816000016000828254019250508190555050565b505050565b611eba828260405180602001604052806000815250612187565b5050565b611ec782611768565b611f06576040517f08c379a0000000000000000000000000000000000000000000000000000000008152600401611efd906131e4565b60405180910390fd5b80600660008481526020019081526020016000209080519060200190611f2d929190612570565b505050565b6000611f538473ffffffffffffffffffffffffffffffffffffffff166121e2565b156120bc578373ffffffffffffffffffffffffffffffffffffffff1663150b7a02611f7c6117d4565b8786866040518563ffffffff1660e01b8152600401611f9e9493929190612f96565b602060405180830381600087803b158015611fb857600080fd5b505af1925050508015611fe957506040513d601f19601f82011682018060405250810190611fe69190612970565b60015b61206c573d8060008114612019576040519150601f19603f3d011682016040523d82523d6000602084013e61201e565b606091505b50600081511415612064576040517f08c379a000000000000000000000000000000000000000000000000000000000815260040161205b906130c4565b60405180910390fd5b805181602001fd5b63150b7a0260e01b7bffffffffffffffffffffffffffffffffffffffffffffffffffffffff1916817bffffffffffffffffffffffffffffffffffffffffffffffffffffffff1916149150506120c1565b600190505b949350505050565b606060405180602001604052806000815250905090565b60606120eb82611768565b61212a576040517f08c379a000000000000000000000000000000000000000000000000000000000815260040161212190613304565b60405180910390fd5b60006121346120c9565b90506000815111612154576040518060200160405280600081525061217f565b8061215e846121f5565b60405160200161216f929190612f57565b6040516020818303038152906040525b915050919050565b61219183836123a2565b61219e6000848484611f32565b6121dd576040517f08c379a00000000000000000000000000000000000000000000000000000000081526004016121d4906130c4565b60405180910390fd5b505050565b600080823b905060008111915050919050565b6060600082141561223d576040518060400160405280600181526020017f3000000000000000000000000000000000000000000000000000000000000000815250905061239d565b600082905060005b6000821461226f578080612258906136c7565b915050600a826122689190613549565b9150612245565b60008167ffffffffffffffff8111156122b1577f4e487b7100000000000000000000000000000000000000000000000000000000600052604160045260246000fd5b6040519080825280601f01601f1916602001820160405280156122e35781602001600182028036833780820191505090505b5090505b60008514612396576001826122fc919061357a565b9150600a8561230b9190613710565b603061231791906134f3565b60f81b818381518110612353577f4e487b7100000000000000000000000000000000000000000000000000000000600052603260045260246000fd5b60200101907effffffffffffffffffffffffffffffffffffffffffffffffffffffffffffff1916908160001a905350600a8561238f9190613549565b94506122e7565b8093505050505b919050565b600073ffffffffffffffffffffffffffffffffffffffff168273ffffffffffffffffffffffffffffffffffffffff161415612412576040517f08c379a000000000000000000000000000000000000000000000000000000000815260040161240990613224565b60405180910390fd5b61241b81611768565b1561245b576040517f08c379a000000000000000000000000000000000000000000000000000000000815260040161245290613104565b60405180910390fd5b61246760008383611e9b565b6001600360008473ffffffffffffffffffffffffffffffffffffffff1673ffffffffffffffffffffffffffffffffffffffff16815260200190815260200160002060008282546124b791906134f3565b92505081905550816002600083815260200190815260200160002060006101000a81548173ffffffffffffffffffffffffffffffffffffffff021916908373ffffffffffffffffffffffffffffffffffffffff160217905550808273ffffffffffffffffffffffffffffffffffffffff16600073ffffffffffffffffffffffffffffffffffffffff167fddf252ad1be2c89b69c2b068fc378daa952ba7f163c4a11628f55a4df523b3ef60405160405180910390a45050565b82805461257c90613664565b90600052602060002090601f01602090048101928261259e57600085556125e5565b82601f106125b757805160ff19168380011785556125e5565b828001600101855582156125e5579182015b828111156125e45782518255916020019190600101906125c9565b5b5090506125f291906125f6565b5090565b5b8082111561260f5760008160009055506001016125f7565b5090565b600061262661262184613404565b6133df565b90508281526020810184848401111561263e57600080fd5b612649848285613622565b509392505050565b600061266461265f84613435565b6133df565b90508281526020810184848401111561267c57600080fd5b612687848285613622565b509392505050565b60008135905061269e81613e46565b92915050565b6000813590506126b381613e5d565b92915050565b6000813590506126c881613e74565b92915050565b6000815190506126dd81613e74565b92915050565b600082601f8301126126f457600080fd5b8135612704848260208601612613565b91505092915050565b600082601f83011261271e57600080fd5b813561272e848260208601612651565b91505092915050565b60008135905061274681613e8b565b92915050565b60006020828403121561275e57600080fd5b600061276c8482850161268f565b91505092915050565b6000806040838503121561278857600080fd5b60006127968582860161268f565b92505060206127a78582860161268f565b9150509250929050565b6000806000606084860312156127c657600080fd5b60006127d48682870161268f565b93505060206127e58682870161268f565b92505060406127f686828701612737565b9150509250925092565b6000806000806080858703121561281657600080fd5b60006128248782880161268f565b94505060206128358782880161268f565b935050604061284687828801612737565b925050606085013567ffffffffffffffff81111561286357600080fd5b61286f878288016126e3565b91505092959194509250565b6000806040838503121561288e57600080fd5b600061289c8582860161268f565b92505060206128ad858286016126a4565b9150509250929050565b600080604083850312156128ca57600080fd5b60006128d88582860161268f565b925050602083013567ffffffffffffffff8111156128f557600080fd5b6129018582860161270d565b9150509250929050565b6000806040838503121561291e57600080fd5b600061292c8582860161268f565b925050602061293d85828601612737565b9150509250929050565b60006020828403121561295957600080fd5b6000612967848285016126b9565b91505092915050565b60006020828403121561298257600080fd5b6000612990848285016126ce565b91505092915050565b6000602082840312156129ab57600080fd5b60006129b984828501612737565b91505092915050565b600080604083850312156129d557600080fd5b60006129e385828601612737565b925050602083013567ffffffffffffffff811115612a0057600080fd5b612a0c8582860161270d565b9150509250929050565b600080600060608486031215612a2b57600080fd5b6000612a3986828701612737565b9350506020612a4a86828701612737565b925050604084013567ffffffffffffffff811115612a6757600080fd5b612a738682870161270d565b9150509250925092565b6000612a898383612b5d565b905092915050565b612a9a816135ae565b82525050565b6000612aab82613476565b612ab581856134a4565b935083602082028501612ac785613466565b8060005b85811015612b035784840389528151612ae48582612a7d565b9450612aef83613497565b925060208a01995050600181019050612acb565b50829750879550505050505092915050565b612b1e816135c0565b82525050565b6000612b2f82613481565b612b3981856134b5565b9350612b49818560208601613631565b612b52816137fd565b840191505092915050565b6000612b688261348c565b612b7281856134c6565b9350612b82818560208601613631565b612b8b816137fd565b840191505092915050565b6000612ba18261348c565b612bab81856134d7565b9350612bbb818560208601613631565b612bc4816137fd565b840191505092915050565b6000612bda8261348c565b612be481856134e8565b9350612bf4818560208601613631565b80840191505092915050565b6000612c0d6032836134d7565b9150612c188261380e565b604082019050919050565b6000612c306026836134d7565b9150612c3b8261385d565b604082019050919050565b6000612c53601c836134d7565b9150612c5e826138ac565b602082019050919050565b6000612c766024836134d7565b9150612c81826138d5565b604082019050919050565b6000612c996019836134d7565b9150612ca482613924565b602082019050919050565b6000612cbc602c836134d7565b9150612cc78261394d565b604082019050919050565b6000612cdf6038836134d7565b9150612cea8261399c565b604082019050919050565b6000612d02602a836134d7565b9150612d0d826139eb565b604082019050919050565b6000612d256029836134d7565b9150612d3082613a3a565b604082019050919050565b6000612d48602e836134d7565b9150612d5382613a89565b604082019050919050565b6000612d6b601c836134d7565b9150612d7682613ad8565b602082019050919050565b6000612d8e6020836134d7565b9150612d9982613b01565b602082019050919050565b6000612db16031836134d7565b9150612dbc82613b2a565b604082019050919050565b6000612dd4602c836134d7565b9150612ddf82613b79565b604082019050919050565b6000612df7601c836134d7565b9150612e0282613bc8565b602082019050919050565b6000612e1a6026836134d7565b9150612e2582613bf1565b604082019050919050565b6000612e3d6020836134d7565b9150612e4882613c40565b602082019050919050565b6000612e606029836134d7565b9150612e6b82613c69565b604082019050919050565b6000612e83602f836134d7565b9150612e8e82613cb8565b604082019050919050565b6000612ea66021836134d7565b9150612eb182613d07565b604082019050919050565b6000612ec96031836134d7565b9150612ed482613d56565b604082019050919050565b6000612eec601b836134d7565b9150612ef782613da5565b602082019050919050565b6000612f0f6024836134d7565b9150612f1a82613dce565b604082019050919050565b6000612f326017836134d7565b9150612f3d82613e1d565b602082019050919050565b612f5181613618565b82525050565b6000612f638285612bcf565b9150612f6f8284612bcf565b91508190509392505050565b6000602082019050612f906000830184612a91565b92915050565b6000608082019050612fab6000830187612a91565b612fb86020830186612a91565b612fc56040830185612f48565b8181036060830152612fd78184612b24565b905095945050505050565b600060a082019050612ff76000830188612a91565b81810360208301526130098187612b96565b90506130186040830186612b15565b6130256060830185612b15565b6130326080830184612b15565b9695505050505050565b60006040820190506130516000830185612a91565b61305e6020830184612f48565b9392505050565b6000602082019050818103600083015261307f8184612aa0565b905092915050565b600060208201905061309c6000830184612b15565b92915050565b600060208201905081810360008301526130bc8184612b96565b905092915050565b600060208201905081810360008301526130dd81612c00565b9050919050565b600060208201905081810360008301526130fd81612c23565b9050919050565b6000602082019050818103600083015261311d81612c46565b9050919050565b6000602082019050818103600083015261313d81612c69565b9050919050565b6000602082019050818103600083015261315d81612c8c565b9050919050565b6000602082019050818103600083015261317d81612caf565b9050919050565b6000602082019050818103600083015261319d81612cd2565b9050919050565b600060208201905081810360008301526131bd81612cf5565b9050919050565b600060208201905081810360008301526131dd81612d18565b9050919050565b600060208201905081810360008301526131fd81612d3b565b9050919050565b6000602082019050818103600083015261321d81612d5e565b9050919050565b6000602082019050818103600083015261323d81612d81565b9050919050565b6000602082019050818103600083015261325d81612da4565b9050919050565b6000602082019050818103600083015261327d81612dc7565b9050919050565b6000602082019050818103600083015261329d81612dea565b9050919050565b600060208201905081810360008301526132bd81612e0d565b9050919050565b600060208201905081810360008301526132dd81612e30565b9050919050565b600060208201905081810360008301526132fd81612e53565b9050919050565b6000602082019050818103600083015261331d81612e76565b9050919050565b6000602082019050818103600083015261333d81612e99565b9050919050565b6000602082019050818103600083015261335d81612ebc565b9050919050565b6000602082019050818103600083015261337d81612edf565b9050919050565b6000602082019050818103600083015261339d81612f02565b9050919050565b600060208201905081810360008301526133bd81612f25565b9050919050565b60006020820190506133d96000830184612f48565b92915050565b60006133e96133fa565b90506133f58282613696565b919050565b6000604051905090565b600067ffffffffffffffff82111561341f5761341e6137ce565b5b613428826137fd565b9050602081019050919050565b600067ffffffffffffffff8211156134505761344f6137ce565b5b613459826137fd565b9050602081019050919050565b6000819050602082019050919050565b600081519050919050565b600081519050919050565b600081519050919050565b6000602082019050919050565b600082825260208201905092915050565b600082825260208201905092915050565b600082825260208201905092915050565b600082825260208201905092915050565b600081905092915050565b60006134fe82613618565b915061350983613618565b9250827fffffffffffffffffffffffffffffffffffffffffffffffffffffffffffffffff0382111561353e5761353d613741565b5b828201905092915050565b600061355482613618565b915061355f83613618565b92508261356f5761356e613770565b5b828204905092915050565b600061358582613618565b915061359083613618565b9250828210156135a3576135a2613741565b5b828203905092915050565b60006135b9826135f8565b9050919050565b60008115159050919050565b60007fffffffff0000000000000000000000000000000000000000000000000000000082169050919050565b600073ffffffffffffffffffffffffffffffffffffffff82169050919050565b6000819050919050565b82818337600083830152505050565b60005b8381101561364f578082015181840152602081019050613634565b8381111561365e576000848401525b50505050565b6000600282049050600182168061367c57607f821691505b602082108114156136905761368f61379f565b5b50919050565b61369f826137fd565b810181811067ffffffffffffffff821117156136be576136bd6137ce565b5b80604052505050565b60006136d282613618565b91507fffffffffffffffffffffffffffffffffffffffffffffffffffffffffffffffff82141561370557613704613741565b5b600182019050919050565b600061371b82613618565b915061372683613618565b92508261373657613735613770565b5b828206905092915050565b7f4e487b7100000000000000000000000000000000000000000000000000000000600052601160045260246000fd5b7f4e487b7100000000000000000000000000000000000000000000000000000000600052601260045260246000fd5b7f4e487b7100000000000000000000000000000000000000000000000000000000600052602260045260246000fd5b7f4e487b7100000000000000000000000000000000000000000000000000000000600052604160045260246000fd5b6000601f19601f8301169050919050565b7f4552433732313a207472616e7366657220746f206e6f6e20455243373231526560008201527f63656976657220696d706c656d656e7465720000000000000000000000000000602082015250565b7f4f776e61626c653a206e6577206f776e657220697320746865207a65726f206160008201527f6464726573730000000000000000000000000000000000000000000000000000602082015250565b7f4552433732313a20746f6b656e20616c7265616479206d696e74656400000000600082015250565b7f4552433732313a207472616e7366657220746f20746865207a65726f2061646460008201527f7265737300000000000000000000000000000000000000000000000000000000602082015250565b7f4552433732313a20617070726f766520746f2063616c6c657200000000000000600082015250565b7f4552433732313a206f70657261746f7220717565727920666f72206e6f6e657860008201527f697374656e7420746f6b656e0000000000000000000000000000000000000000602082015250565b7f4552433732313a20617070726f76652063616c6c6572206973206e6f74206f7760008201527f6e6572206e6f7220617070726f76656420666f7220616c6c0000000000000000602082015250565b7f4552433732313a2062616c616e636520717565727920666f7220746865207a6560008201527f726f206164647265737300000000000000000000000000000000000000000000602082015250565b7f4552433732313a206f776e657220717565727920666f72206e6f6e657869737460008201527f656e7420746f6b656e0000000000000000000000000000000000000000000000602082015250565b7f45524337323155524953746f726167653a2055524920736574206f66206e6f6e60008201527f6578697374656e7420746f6b656e000000000000000000000000000000000000602082015250565b7f5573657220616c7265616479206861766520612070617373706f727400000000600082015250565b7f4552433732313a206d696e7420746f20746865207a65726f2061646472657373600082015250565b7f45524337323155524953746f726167653a2055524920717565727920666f722060008201527f6e6f6e6578697374656e7420746f6b656e000000000000000000000000000000602082015250565b7f4552433732313a20617070726f76656420717565727920666f72206e6f6e657860008201527f697374656e7420746f6b656e0000000000000000000000000000000000000000602082015250565b7f5573657220616c7265616479206861766520612074617820636f646500000000600082015250565b7f4f6e6c7920557365722063616e20637265617465206869732f68657220646f6360008201527f756d656e74210000000000000000000000000000000000000000000000000000602082015250565b7f4f776e61626c653a2063616c6c6572206973206e6f7420746865206f776e6572600082015250565b7f4552433732313a207472616e73666572206f6620746f6b656e2074686174206960008201527f73206e6f74206f776e0000000000000000000000000000000000000000000000602082015250565b7f4552433732314d657461646174613a2055524920717565727920666f72206e6f60008201527f6e6578697374656e7420746f6b656e0000000000000000000000000000000000602082015250565b7f4552433732313a20617070726f76616c20746f2063757272656e74206f776e6560008201527f7200000000000000000000000000000000000000000000000000000000000000602082015250565b7f4552433732313a207472616e736665722063616c6c6572206973206e6f74206f60008201527f776e6572206e6f7220617070726f766564000000000000000000000000000000602082015250565b7f55736572206e6f7420666f756e642120437265617465206f6e65210000000000600082015250565b7f53656e646572206973206e6f7420746865206f776e6572206f6620746865207460008201527f6f6b656e00000000000000000000000000000000000000000000000000000000602082015250565b7f5573657220616c7265616479206861766520616e204944000000000000000000600082015250565b613e4f816135ae565b8114613e5a57600080fd5b50565b613e66816135c0565b8114613e7157600080fd5b50565b613e7d816135cc565b8114613e8857600080fd5b50565b613e9481613618565b8114613e9f57600080fd5b5056fea2646970667358221220d9ec7093a9d44d56525d446e66456167436234ceca840f909549d20103e8c9c564736f6c63430008020033",
  "immutableReferences": {},
  "source": "// SPDX-License-Identifier: MIT\npragma solidity ^0.8.2;\n\nimport \"@openzeppelin/contracts/token/ERC721/ERC721.sol\";\nimport \"@openzeppelin/contracts/token/ERC721/extensions/ERC721URIStorage.sol\";\nimport \"@openzeppelin/contracts/access/Ownable.sol\";\nimport \"@openzeppelin/contracts/utils/Counters.sol\";\n\nlibrary SafeMath {\n    /**\n     * @dev Returns the addition of two unsigned integers, reverting on\n     * overflow.\n     *\n     * Counterpart to Solidity's `+` operator.\n     *\n     * Requirements:\n     *\n     * - Addition cannot overflow.\n     */\n    function add(uint256 a, uint256 b) internal pure returns (uint256) {\n        uint256 c = a + b;\n        require(c >= a, \"SafeMath: addition overflow\");\n\n        return c;\n    }\n\n    /**\n     * @dev Returns the subtraction of two unsigned integers, reverting on\n     * overflow (when the result is negative).\n     *\n     * Counterpart to Solidity's `-` operator.\n     *\n     * Requirements:\n     *\n     * - Subtraction cannot overflow.\n     */\n    function sub(uint256 a, uint256 b) internal pure returns (uint256) {\n        return sub(a, b, \"SafeMath: subtraction overflow\");\n    }\n\n    /**\n     * @dev Returns the subtraction of two unsigned integers, reverting with custom message on\n     * overflow (when the result is negative).\n     *\n     * Counterpart to Solidity's `-` operator.\n     *\n     * Requirements:\n     *\n     * - Subtraction cannot overflow.\n     */\n    function sub(uint256 a, uint256 b, string memory errorMessage) internal pure returns (uint256) {\n        require(b <= a, errorMessage);\n        uint256 c = a - b;\n\n        return c;\n    }\n\n    /**\n     * @dev Returns the multiplication of two unsigned integers, reverting on\n     * overflow.\n     *\n     * Counterpart to Solidity's `*` operator.\n     *\n     * Requirements:\n     *\n     * - Multiplication cannot overflow.\n     */\n    function mul(uint256 a, uint256 b) internal pure returns (uint256) {\n        // Gas optimization: this is cheaper than requiring 'a' not being zero, but the\n        // benefit is lost if 'b' is also tested.\n        // See: https://github.com/OpenZeppelin/openzeppelin-contracts/pull/522\n        if (a == 0) {\n            return 0;\n        }\n\n        uint256 c = a * b;\n        require(c / a == b, \"SafeMath: multiplication overflow\");\n\n        return c;\n    }\n\n    /**\n     * @dev Returns the integer division of two unsigned integers. Reverts on\n     * division by zero. The result is rounded towards zero.\n     *\n     * Counterpart to Solidity's `/` operator. Note: this function uses a\n     * `revert` opcode (which leaves remaining gas untouched) while Solidity\n     * uses an invalid opcode to revert (consuming all remaining gas).\n     *\n     * Requirements:\n     *\n     * - The divisor cannot be zero.\n     */\n    function div(uint256 a, uint256 b) internal pure returns (uint256) {\n        return div(a, b, \"SafeMath: division by zero\");\n    }\n\n    /**\n     * @dev Returns the integer division of two unsigned integers. Reverts with custom message on\n     * division by zero. The result is rounded towards zero.\n     *\n     * Counterpart to Solidity's `/` operator. Note: this function uses a\n     * `revert` opcode (which leaves remaining gas untouched) while Solidity\n     * uses an invalid opcode to revert (consuming all remaining gas).\n     *\n     * Requirements:\n     *\n     * - The divisor cannot be zero.\n     */\n    function div(uint256 a, uint256 b, string memory errorMessage) internal pure returns (uint256) {\n        require(b > 0, errorMessage);\n        uint256 c = a / b;\n        // assert(a == b * c + a % b); // There is no case in which this doesn't hold\n\n        return c;\n    }\n\n    /**\n     * @dev Returns the remainder of dividing two unsigned integers. (unsigned integer modulo),\n     * Reverts when dividing by zero.\n     *\n     * Counterpart to Solidity's `%` operator. This function uses a `revert`\n     * opcode (which leaves remaining gas untouched) while Solidity uses an\n     * invalid opcode to revert (consuming all remaining gas).\n     *\n     * Requirements:\n     *\n     * - The divisor cannot be zero.\n     */\n    function mod(uint256 a, uint256 b) internal pure returns (uint256) {\n        return mod(a, b, \"SafeMath: modulo by zero\");\n    }\n\n    /**\n     * @dev Returns the remainder of dividing two unsigned integers. (unsigned integer modulo),\n     * Reverts with custom message when dividing by zero.\n     *\n     * Counterpart to Solidity's `%` operator. This function uses a `revert`\n     * opcode (which leaves remaining gas untouched) while Solidity uses an\n     * invalid opcode to revert (consuming all remaining gas).\n     *\n     * Requirements:\n     *\n     * - The divisor cannot be zero.\n     */\n    function mod(uint256 a, uint256 b, string memory errorMessage) internal pure returns (uint256) {\n        require(b != 0, errorMessage);\n        return a % b;\n    }\n}\n\ncontract UserDocument is ERC721, ERC721URIStorage, Ownable {\n    \n    using Counters for Counters.Counter;\n    using SafeMath for uint256;\n\n    Counters.Counter private _tokenIdCounter;\n    Counters.Counter private _usersIdCounter;\n    \n    //list of users indexed by user_id\n    mapping(uint256=>User) public _users;\n\n    //array of userDocumentsIds indexed by user_id \n    mapping(uint256=>uint256[]) private _userDocumentIds;\n\n    //array of url for the dynamic data of a specific token, indexed by token_id\n    mapping(uint256=>string[]) private dynamicData;\n    \n    constructor() ERC721(\"Document\", \"DOCS\") {}\n\n    //STRUCT\n    \n    //the user struct has 2 main data that are userAddress and the country of residence\n    //the user has also 3 boolean variables that help the frontend to display the data\n    struct User {\n      address userAddress;\n      string country;\n      bool passport;\n      bool personalId;\n      bool taxCode;\n    }\n    \n    //EVENT\n\n    event UserCreated(address _userAddress);\n    event DocumentCreated(address _userAddress, uint256 tokenId);\n\n    //MODIFIER\n    \n    modifier onlyTokenOwner(uint256 _tokenId){\n        require(ownerOf(_tokenId)==msg.sender, \"Sender is not the owner of the token\");\n        _;\n    }\n    \n    modifier onlyUser(uint256 _userId){\n        require(_userId<_usersIdCounter.current(), \"User not found! Create one!\");\n        require(_users[_userId].userAddress == msg.sender, \"Only User can create his/her document!\");\n        _;\n    }\n    \n    /**\n     * @dev create a new user and emit an event\n     * @param _to the user address \n     * @param _country the country of residence of that user\n     */\n    function createUser(address _to, string memory _country) external {\n        _users[_usersIdCounter.current()]=User({\n            userAddress: _to,\n            country: _country,\n            passport: false,\n            personalId: false,\n            taxCode: false\n        });\n        _usersIdCounter.increment();\n        emit UserCreated(_to);\n    }\n    \n    /**\n     * @dev create a new document / token\n     * @param _userId the userId of the user that wants to create a new document\n     * @param _typeOfRequest the type of document the user wants to create (0=passport, 1=personalId and 2=taxCode) coming from the frontend\n     * @param _uri the metadata for the new document coming from the IPFS\n     */\n    function onDocumentCreation(uint256 _userId, uint256 _typeOfRequest, string memory _uri) public onlyUser(_userId) {\n        if(_typeOfRequest == 0) require(!(_users[_userId].passport), \"User already have a passport\");\n        if(_typeOfRequest == 1) require(!(_users[_userId].personalId), \"User already have an ID\");\n        if(_typeOfRequest == 2) require(!(_users[_userId].taxCode), \"User already have a tax code\");\n        \n        \n        if(_typeOfRequest == 0) _users[_userId].passport = true;\n        if(_typeOfRequest == 1) _users[_userId].personalId = true;\n        if(_typeOfRequest == 2) _users[_userId].taxCode = true;\n\n        _userDocumentIds[_userId].push(_tokenIdCounter.current());\n                \n        safeMint(_users[_userId].userAddress, _uri);\n\n        emit DocumentCreated(_users[_userId].userAddress, _tokenIdCounter.current()-1);        \n    }\n\n    /**\n     * @dev create a new token and assign it to the user (override)\n     * @param to address of the user to assign the token\n     *@param _uri the metadata for the new document coming from the IPFS\n     */\n    function safeMint(address to, string memory _uri) private {\n        _safeMint(to, _tokenIdCounter.current());\n        _setTokenURI(_tokenIdCounter.current(), _uri);\n        _tokenIdCounter.increment();\n    }\n\n    // The following functions are overrides required by Solidity\n    function _burn(uint256 tokenId) internal override(ERC721, ERC721URIStorage) {\n        super._burn(tokenId);\n    }\n\n    /**\n     * @dev return the tokenURI of a specific token\n     * @param tokenId the token_id of token to receive the URI\n     */\n    function tokenURI(uint256 tokenId)\n        public\n        view\n        override(ERC721, ERC721URIStorage)\n        returns (string memory)\n    {\n        return super.tokenURI(tokenId);\n    }\n    \n    /**\n     * @dev Add a DynamicData to the array of a specific 'tokenId'.\n     * @param _tokenId the token_id to get the corresponding dynamic data\n     *@param _data the check to add at the dynamic data\n     *\n     * Tokens dynamicData can only be managed by the owner of that token.\n     *\n     * DynamicData can only be pushed into the array and not popped. \n     * Check first if the token exists and then add data. \n     */\n    function addDataToDynamicNFT(uint256 _tokenId, string memory _data) public onlyTokenOwner(_tokenId) {\n        require(_exists(_tokenId), \"ERC721URIStorage: URI set of nonexistent token\");\n        dynamicData[_tokenId].push(_data);\n    }\n    \n    /**\n     * @dev Returns the DynamicData of a specific 'tokenId'.\n     * @param _tokenId the token_id to get the corresponding dynamic data\n     *\n     * Tokens dynamicData can be seen by everybody in order to make it a standard for marketplace.\n     * \n     * Check first if the token exists and then return the dynamicData. \n     */\n    function getDynamiData(uint256 _tokenId) external view returns(string[] memory) {\n        require(_exists(_tokenId), \"ERC721URIStorage: URI set of nonexistent token\");\n        return dynamicData[_tokenId];\n    }\n    \n    /**\n     * @dev Returns the current tokenId counter.\n     */\n    function getTokenIdsCount() external view returns(uint256) {\n        return _tokenIdCounter.current();\n    }\n    \n    /**\n     * @dev Returns the current userId counter.\n     */\n    function getUserIdsCount() external view returns(uint256) {\n        return _usersIdCounter.current();\n    }\n}",
  "sourcePath": "/Users/gianmarco/Desktop/Personal Projects/blockchain-developer-bootcamp-final-project/contracts/UserDocument.sol",
  "compiler": {
    "name": "solc",
    "version": "0.8.2+commit.661d1103.Emscripten.clang"
  },
  "schemaVersion": "3.4.3",
  "updatedAt": "2021-11-24T10:55:49.165Z",
  "devdoc": {
    "kind": "dev",
    "methods": {
      "addDataToDynamicNFT(uint256,string)": {
        "details": "Add a DynamicData to the array of a specific 'tokenId'.",
        "params": {
          "_data": "the check to add at the dynamic data Tokens dynamicData can only be managed by the owner of that token. DynamicData can only be pushed into the array and not popped.  Check first if the token exists and then add data. ",
          "_tokenId": "the token_id to get the corresponding dynamic data"
        }
      },
      "approve(address,uint256)": {
        "details": "See {IERC721-approve}."
      },
      "balanceOf(address)": {
        "details": "See {IERC721-balanceOf}."
      },
      "createUser(address,string)": {
        "details": "create a new user and emit an event",
        "params": {
          "_country": "the country of residence of that user",
          "_to": "the user address "
        }
      },
      "getApproved(uint256)": {
        "details": "See {IERC721-getApproved}."
      },
      "getDynamiData(uint256)": {
        "details": "Returns the DynamicData of a specific 'tokenId'.",
        "params": {
          "_tokenId": "the token_id to get the corresponding dynamic data Tokens dynamicData can be seen by everybody in order to make it a standard for marketplace.  Check first if the token exists and then return the dynamicData. "
        }
      },
      "getTokenIdsCount()": {
        "details": "Returns the current tokenId counter."
      },
      "getUserIdsCount()": {
        "details": "Returns the current userId counter."
      },
      "isApprovedForAll(address,address)": {
        "details": "See {IERC721-isApprovedForAll}."
      },
      "name()": {
        "details": "See {IERC721Metadata-name}."
      },
      "onDocumentCreation(uint256,uint256,string)": {
        "details": "create a new document / token",
        "params": {
          "_typeOfRequest": "the type of document the user wants to create (0=passport, 1=personalId and 2=taxCode) coming from the frontend",
          "_uri": "the metadata for the new document coming from the IPFS",
          "_userId": "the userId of the user that wants to create a new document"
        }
      },
      "owner()": {
        "details": "Returns the address of the current owner."
      },
      "ownerOf(uint256)": {
        "details": "See {IERC721-ownerOf}."
      },
      "renounceOwnership()": {
        "details": "Leaves the contract without owner. It will not be possible to call `onlyOwner` functions anymore. Can only be called by the current owner. NOTE: Renouncing ownership will leave the contract without an owner, thereby removing any functionality that is only available to the owner."
      },
      "safeTransferFrom(address,address,uint256)": {
        "details": "See {IERC721-safeTransferFrom}."
      },
      "safeTransferFrom(address,address,uint256,bytes)": {
        "details": "See {IERC721-safeTransferFrom}."
      },
      "setApprovalForAll(address,bool)": {
        "details": "See {IERC721-setApprovalForAll}."
      },
      "supportsInterface(bytes4)": {
        "details": "See {IERC165-supportsInterface}."
      },
      "symbol()": {
        "details": "See {IERC721Metadata-symbol}."
      },
      "tokenURI(uint256)": {
        "details": "return the tokenURI of a specific token",
        "params": {
          "tokenId": "the token_id of token to receive the URI"
        }
      },
      "transferFrom(address,address,uint256)": {
        "details": "See {IERC721-transferFrom}."
      },
      "transferOwnership(address)": {
        "details": "Transfers ownership of the contract to a new account (`newOwner`). Can only be called by the current owner."
      }
    },
    "version": 1
  },
  "userdoc": {
    "kind": "user",
    "methods": {},
    "version": 1
  }
}